{
  "contractName": "ElectionContract",
  "abi": [
    {
      "constant": true,
      "inputs": [
        {
          "name": "",
          "type": "address"
        }
      ],
      "name": "voterDetails",
      "outputs": [
        {
          "name": "voterAddress",
          "type": "address"
        },
        {
          "name": "hasVoted",
          "type": "bool"
        },
        {
          "name": "isVerified",
          "type": "bool"
        }
      ],
      "payable": false,
      "stateMutability": "view",
      "type": "function"
    },
    {
      "constant": true,
      "inputs": [
        {
          "name": "",
          "type": "uint256"
        }
      ],
      "name": "candidateDetails",
      "outputs": [
        {
          "name": "name",
          "type": "string"
        },
        {
          "name": "party",
          "type": "string"
        },
        {
          "name": "voteCount",
          "type": "uint256"
        },
        {
          "name": "candidateId",
          "type": "uint256"
        }
      ],
      "payable": false,
      "stateMutability": "view",
      "type": "function"
    },
    {
      "constant": true,
      "inputs": [],
      "name": "owner",
      "outputs": [
        {
          "name": "",
          "type": "address"
        }
      ],
      "payable": false,
      "stateMutability": "view",
      "type": "function"
    },
    {
      "constant": true,
      "inputs": [
        {
          "name": "",
          "type": "uint256"
        }
      ],
      "name": "voters",
      "outputs": [
        {
          "name": "",
          "type": "address"
        }
      ],
      "payable": false,
      "stateMutability": "view",
      "type": "function"
    },
    {
      "inputs": [],
      "payable": false,
      "stateMutability": "nonpayable",
      "type": "constructor"
    },
    {
      "constant": true,
      "inputs": [],
      "name": "getOwner",
      "outputs": [
        {
          "name": "",
          "type": "address"
        }
      ],
      "payable": false,
      "stateMutability": "view",
      "type": "function"
    },
    {
      "constant": false,
      "inputs": [
        {
          "name": "_name",
          "type": "string"
        },
        {
          "name": "_party",
          "type": "string"
        }
      ],
      "name": "addCandidate",
      "outputs": [],
      "payable": false,
      "stateMutability": "nonpayable",
      "type": "function"
    },
    {
      "constant": true,
      "inputs": [],
      "name": "getCandidateNumber",
      "outputs": [
        {
          "name": "",
          "type": "uint256"
        }
      ],
      "payable": false,
      "stateMutability": "view",
      "type": "function"
    },
    {
      "constant": false,
      "inputs": [
        {
          "name": "_address",
          "type": "address"
        }
      ],
      "name": "addVoter",
      "outputs": [],
      "payable": false,
      "stateMutability": "nonpayable",
      "type": "function"
    },
    {
      "constant": true,
      "inputs": [],
      "name": "getVoterCount",
      "outputs": [
        {
          "name": "",
          "type": "uint256"
        }
      ],
      "payable": false,
      "stateMutability": "view",
      "type": "function"
    },
    {
      "constant": false,
      "inputs": [
        {
          "name": "_address",
          "type": "address"
        }
      ],
      "name": "verifyVoter",
      "outputs": [],
      "payable": false,
      "stateMutability": "nonpayable",
      "type": "function"
    },
    {
      "constant": false,
      "inputs": [
        {
          "name": "candidateId",
          "type": "uint256"
        }
      ],
      "name": "vote",
      "outputs": [],
      "payable": false,
      "stateMutability": "nonpayable",
      "type": "function"
    },
    {
      "constant": false,
      "inputs": [],
      "name": "startElection",
      "outputs": [],
      "payable": false,
      "stateMutability": "nonpayable",
      "type": "function"
    },
    {
      "constant": false,
      "inputs": [],
      "name": "endElection",
      "outputs": [],
      "payable": false,
      "stateMutability": "nonpayable",
      "type": "function"
    },
    {
      "constant": true,
      "inputs": [],
      "name": "getStart",
      "outputs": [
        {
          "name": "",
          "type": "bool"
        }
      ],
      "payable": false,
      "stateMutability": "view",
      "type": "function"
    },
    {
      "constant": true,
      "inputs": [],
      "name": "getEnd",
      "outputs": [
        {
          "name": "",
          "type": "bool"
        }
      ],
      "payable": false,
      "stateMutability": "view",
      "type": "function"
    }
  ],
  "bytecode": "0x6060604052341561000f57600080fd5b336000806101000a81548173ffffffffffffffffffffffffffffffffffffffff021916908373ffffffffffffffffffffffffffffffffffffffff160217905550600060018190555060006002819055506000600360006101000a81548160ff0219169083151502179055506000600360016101000a81548160ff021916908315150217905550610eb5806100a46000396000f300606060405236156100d9576000357c0100000000000000000000000000000000000000000000000000000000900463ffffffff1680630121b93f146100de57806309bd09501461010157806311174a291461013a57806326541b5614610163578063364dff25146102035780635938750d1461022c57806359f78468146102bb5780636247e532146102d057806362d73eb814610420578063893d20e8146104355780638da5cb5b1461048a5780639f05a36d146104df578063c5292c671461050c578063da58c7d914610539578063f4ab9adf1461059c575b600080fd5b34156100e957600080fd5b6100ff60048080359060200190919050506105d5565b005b341561010c57600080fd5b610138600480803573ffffffffffffffffffffffffffffffffffffffff16906020019091905050610760565b005b341561014557600080fd5b61014d610822565b6040518082815260200191505060405180910390f35b341561016e57600080fd5b610201600480803590602001908201803590602001908080601f0160208091040260200160405190810160405280939291908181526020018383808284378201915050505050509190803590602001908201803590602001908080601f0160208091040260200160405190810160405280939291908181526020018383808284378201915050505050509190505061082c565b005b341561020e57600080fd5b610216610932565b6040518082815260200191505060405180910390f35b341561023757600080fd5b610263600480803573ffffffffffffffffffffffffffffffffffffffff1690602001909190505061093c565b604051808473ffffffffffffffffffffffffffffffffffffffff1673ffffffffffffffffffffffffffffffffffffffff1681526020018315151515815260200182151515158152602001935050505060405180910390f35b34156102c657600080fd5b6102ce6109a0565b005b34156102db57600080fd5b6102f16004808035906020019091905050610a33565b60405180806020018060200185815260200184815260200183810383528781815460018160011615610100020316600290048152602001915080546001816001161561010002031660029004801561038a5780601f1061035f5761010080835404028352916020019161038a565b820191906000526020600020905b81548152906001019060200180831161036d57829003601f168201915b505083810382528681815460018160011615610100020316600290048152602001915080546001816001161561010002031660029004801561040d5780601f106103e25761010080835404028352916020019161040d565b820191906000526020600020905b8154815290600101906020018083116103f057829003601f168201915b5050965050505050505060405180910390f35b341561042b57600080fd5b610433610a61565b005b341561044057600080fd5b610448610af4565b604051808273ffffffffffffffffffffffffffffffffffffffff1673ffffffffffffffffffffffffffffffffffffffff16815260200191505060405180910390f35b341561049557600080fd5b61049d610b1d565b604051808273ffffffffffffffffffffffffffffffffffffffff1673ffffffffffffffffffffffffffffffffffffffff16815260200191505060405180910390f35b34156104ea57600080fd5b6104f2610b42565b604051808215151515815260200191505060405180910390f35b341561051757600080fd5b61051f610b59565b604051808215151515815260200191505060405180910390f35b341561054457600080fd5b61055a6004808035906020019091905050610b70565b604051808273ffffffffffffffffffffffffffffffffffffffff1673ffffffffffffffffffffffffffffffffffffffff16815260200191505060405180910390f35b34156105a757600080fd5b6105d3600480803573ffffffffffffffffffffffffffffffffffffffff16906020019091905050610baf565b005b60001515600660003373ffffffffffffffffffffffffffffffffffffffff1673ffffffffffffffffffffffffffffffffffffffff16815260200190815260200160002060000160149054906101000a900460ff16151514151561063757600080fd5b60011515600660003373ffffffffffffffffffffffffffffffffffffffff1673ffffffffffffffffffffffffffffffffffffffff16815260200190815260200160002060000160159054906101000a900460ff16151514151561069957600080fd5b60011515600360009054906101000a900460ff1615151415156106bb57600080fd5b60001515600360019054906101000a900460ff1615151415156106dd57600080fd5b600160046000838152602001908152602001600020600201600082825401925050819055506001600660003373ffffffffffffffffffffffffffffffffffffffff1673ffffffffffffffffffffffffffffffffffffffff16815260200190815260200160002060000160146101000a81548160ff02191690831515021790555050565b6000809054906101000a900473ffffffffffffffffffffffffffffffffffffffff1673ffffffffffffffffffffffffffffffffffffffff163373ffffffffffffffffffffffffffffffffffffffff161415156107bb57600080fd5b6107c481610baf565b6001600660008373ffffffffffffffffffffffffffffffffffffffff1673ffffffffffffffffffffffffffffffffffffffff16815260200190815260200160002060000160156101000a81548160ff02191690831515021790555050565b6000600254905090565b610834610d33565b6000809054906101000a900473ffffffffffffffffffffffffffffffffffffffff1673ffffffffffffffffffffffffffffffffffffffff163373ffffffffffffffffffffffffffffffffffffffff1614151561088f57600080fd5b6080604051908101604052808481526020018381526020016000815260200160015481525090508060046000600154815260200190815260200160002060008201518160000190805190602001906108e8929190610d68565b506020820151816001019080519060200190610905929190610d68565b50604082015181600201556060820151816003015590505060018060008282540192505081905550505050565b6000600154905090565b60066020528060005260406000206000915090508060000160009054906101000a900473ffffffffffffffffffffffffffffffffffffffff16908060000160149054906101000a900460ff16908060000160159054906101000a900460ff16905083565b6000809054906101000a900473ffffffffffffffffffffffffffffffffffffffff1673ffffffffffffffffffffffffffffffffffffffff163373ffffffffffffffffffffffffffffffffffffffff161415156109fb57600080fd5b6001600360016101000a81548160ff0219169083151502179055506000600360006101000a81548160ff021916908315150217905550565b6004602052806000526040600020600091509050806000019080600101908060020154908060030154905084565b6000809054906101000a900473ffffffffffffffffffffffffffffffffffffffff1673ffffffffffffffffffffffffffffffffffffffff163373ffffffffffffffffffffffffffffffffffffffff16141515610abc57600080fd5b6001600360006101000a81548160ff0219169083151502179055506000600360016101000a81548160ff021916908315150217905550565b60008060009054906101000a900473ffffffffffffffffffffffffffffffffffffffff16905090565b6000809054906101000a900473ffffffffffffffffffffffffffffffffffffffff1681565b6000600360019054906101000a900460ff16905090565b6000600360009054906101000a900460ff16905090565b600581815481101515610b7f57fe5b90600052602060002090016000915054906101000a900473ffffffffffffffffffffffffffffffffffffffff1681565b610bb7610de8565b6060604051908101604052808373ffffffffffffffffffffffffffffffffffffffff16815260200160001515815260200160001515815250905080600660003373ffffffffffffffffffffffffffffffffffffffff1673ffffffffffffffffffffffffffffffffffffffff16815260200190815260200160002060008201518160000160006101000a81548173ffffffffffffffffffffffffffffffffffffffff021916908373ffffffffffffffffffffffffffffffffffffffff16021790555060208201518160000160146101000a81548160ff02191690831515021790555060408201518160000160156101000a81548160ff02191690831515021790555090505060058054806001018281610ccf9190610e24565b9160005260206000209001600033909190916101000a81548173ffffffffffffffffffffffffffffffffffffffff021916908373ffffffffffffffffffffffffffffffffffffffff1602179055505060016002600082825401925050819055505050565b608060405190810160405280610d47610e50565b8152602001610d54610e50565b815260200160008152602001600081525090565b828054600181600116156101000203166002900490600052602060002090601f016020900481019282601f10610da957805160ff1916838001178555610dd7565b82800160010185558215610dd7579182015b82811115610dd6578251825591602001919060010190610dbb565b5b509050610de49190610e64565b5090565b606060405190810160405280600073ffffffffffffffffffffffffffffffffffffffff1681526020016000151581526020016000151581525090565b815481835581811511610e4b57818360005260206000209182019101610e4a9190610e64565b5b505050565b602060405190810160405280600081525090565b610e8691905b80821115610e82576000816000905550600101610e6a565b5090565b905600a165627a7a7230582039fcc355898661204c60b6b945838f5ee768df090bee4bd28d1f38b107562fe80029",
  "source": "pragma solidity ^0.4.17;\n\ncontract ElectionContract {\n    address public owner;\n    uint256 candidateCount;\n    uint256 voterCount;\n    bool start;\n    bool end;\n\n    // Constructor\n    function ElectionContract() public {\n        owner = msg.sender;\n        candidateCount = 0;\n        voterCount = 0;\n        start = false;\n        end = false;\n    }\n\n    function getOwner() public view returns (address) {\n        return owner;\n    }\n\n    // Only Admin can access\n    modifier onlyAdmin() {\n        require(msg.sender == owner);\n        _;\n    }\n    struct Candidate {\n        string name;\n        string party;\n        uint256 voteCount;\n        uint256 candidateId;\n    }\n    mapping(uint256 => Candidate) public candidateDetails;\n\n    // Only admin can add candidate\n    function addCandidate(\n        string _name,\n        string _party\n    ) public onlyAdmin {\n        Candidate memory newCandidate = Candidate({\n            name: _name,\n            party: _party,\n            voteCount: 0,\n            candidateId: candidateCount\n        });\n        candidateDetails[candidateCount] = newCandidate;\n        candidateCount += 1;\n    }\n\n    // get total number of candidates\n    function getCandidateNumber() public view returns (uint256) {\n        return candidateCount;\n    }\n\n    struct Voter {\n        address voterAddress;\n        // string name;\n        bool hasVoted;\n        bool isVerified;\n    }\n    address[] public voters;\n    mapping(address => Voter) public voterDetails;\n\n    // request to be added as voter\n    function addVoter(\n        address _address\n        // string _name,\n    ) public {\n        Voter memory newVoter = Voter({\n            voterAddress: _address,\n            // name: _name,\n            hasVoted: false,\n            isVerified: false\n        });\n        voterDetails[msg.sender] = newVoter;\n        voters.push(msg.sender);\n        voterCount += 1;\n    }\n\n    // get total number of voters\n    function getVoterCount() public view returns (uint256) {\n        return voterCount;\n    }\n\n    function verifyVoter(address _address) public onlyAdmin {\n        addVoter(_address);\n        voterDetails[_address].isVerified = true;\n    }\n\n    function vote(uint256 candidateId) public {\n        require(voterDetails[msg.sender].hasVoted == false);\n        require(voterDetails[msg.sender].isVerified == true);\n        require(start == true);\n        require(end == false);\n        candidateDetails[candidateId].voteCount += 1;\n        voterDetails[msg.sender].hasVoted = true;\n    }\n\n    function startElection() public onlyAdmin {\n        start = true;\n        end = false;\n    }\n\n    function endElection() public onlyAdmin {\n        end = true;\n        start = false;\n    }\n\n    function getStart() public view returns (bool) {\n        return start;\n    }\n\n    function getEnd() public view returns (bool) {\n        return end;\n    }\n}\n",
  "sourcePath": "/Users/ajayk/Desktop/trials/blockchain/election_web3/contracts/ElectionContract.sol",
  "compiler": {
    "name": "solc",
    "version": "0.4.17+commit.bdeb9e52.Emscripten.clang"
  },
  "schemaVersion": "3.4.3",
  "updatedAt": "2021-11-28T07:34:44.587Z",
  "devdoc": {
    "methods": {}
  },
  "userdoc": {
    "methods": {}
  }
}